{
  "contractName": "BuyerSide",
  "abi": [
    {
      "constant": false,
      "inputs": [
        {
          "name": "shareName",
          "type": "string"
        },
        {
          "name": "quantity",
          "type": "uint256"
        }
      ],
      "name": "CreateRFQ",
      "outputs": [
        {
          "name": "",
          "type": "uint256"
        }
      ],
      "payable": false,
      "stateMutability": "nonpayable",
      "type": "function"
    }
  ],
  "bytecode": "0x608060405234801561001057600080fd5b5061024a806100206000396000f3fe6080604052600436106100405763ffffffff7c01000000000000000000000000000000000000000000000000000000006000350416636ecb11418114610045575b600080fd5b34801561005157600080fd5b506100fa6004803603604081101561006857600080fd5b81019060208101813564010000000081111561008357600080fd5b82018360208201111561009557600080fd5b803590602001918460018302840111640100000000831117156100b757600080fd5b91908080601f016020809104026020016040519081016040528093929190818152602001838380828437600092019190915250929550509135925061010c915050565b60408051918252519081900360200190f35b60008054604080517fb5b0de02000000000000000000000000000000000000000000000000000000008152602481018590526004810191825285516044820152855173ffffffffffffffffffffffffffffffffffffffff9093169263b5b0de02928792879282916064019060208601908083838c5b83811015610199578181015183820152602001610181565b50505050905090810190601f1680156101c65780820380516001836020036101000a031916815260200191505b509350505050602060405180830381600087803b1580156101e657600080fd5b505af11580156101fa573d6000803e3d6000fd5b505050506040513d602081101561021057600080fd5b50516001819055939250505056fea165627a7a7230582078f074f5021ffcf144d5172b1393a5dd172222f0a3483c4bdd66444da949baea0029",
  "source": "pragma solidity >=0.4.21 <0.6.0;\r\nimport \"./FinIQ_Core.sol\";\r\n\r\ncontract BuyerSide {\r\n    FinIQ_Core fc;\r\n    uint RFQ_id;\r\n\r\n    function CreateRFQ (string memory shareName, uint quantity) public returns(uint ) {\r\n        RFQ_id = fc.updateCreateRFQ (shareName, quantity);\r\n        return RFQ_id;\r\n    }\r\n\r\n}",
  "sourcePath": "C:\\Users\\ADMIN\\project\\contracts\\BuyerSide.sol",
  "compiler": {
    "name": "solc",
    "version": "0.5.0+commit.1d4f565a.Emscripten.clang"
  },
  "schemaVersion": "3.0.2",
  "updatedAt": "2019-04-08T14:39:23.172Z",
  "devdoc": {
    "methods": {}
  },
  "userdoc": {
    "methods": {}
  }
}