{
  "contractName": "FinIQ_Core",
  "abi": [
    {
      "constant": true,
      "inputs": [
        {
          "name": "",
          "type": "uint256"
        }
      ],
      "name": "response",
      "outputs": [
        {
          "name": "response_id",
          "type": "uint256"
        },
        {
          "name": "price",
          "type": "uint256"
        },
        {
          "name": "rfq_id",
          "type": "uint256"
        }
      ],
      "payable": false,
      "stateMutability": "view",
      "type": "function"
    },
    {
      "constant": true,
      "inputs": [
        {
          "name": "",
          "type": "uint256"
        }
      ],
      "name": "rfq",
      "outputs": [
        {
          "name": "shareName",
          "type": "string"
        },
        {
          "name": "quantity",
          "type": "uint256"
        },
        {
          "name": "rfq_id",
          "type": "uint256"
        },
        {
          "name": "timeStamp",
          "type": "uint256"
        }
      ],
      "payable": false,
      "stateMutability": "view",
      "type": "function"
    },
    {
      "anonymous": false,
      "inputs": [
        {
          "indexed": false,
          "name": "sellSide",
          "type": "address"
        },
        {
          "indexed": false,
          "name": "shareName",
          "type": "string"
        },
        {
          "indexed": false,
          "name": "quantity",
          "type": "uint256"
        },
        {
          "indexed": false,
          "name": "rfq_id",
          "type": "uint256"
        }
      ],
      "name": "Request",
      "type": "event"
    },
    {
      "constant": false,
      "inputs": [
        {
          "name": "shareName",
          "type": "string"
        },
        {
          "name": "quantity",
          "type": "uint256"
        }
      ],
      "name": "updateCreateRFQ",
      "outputs": [
        {
          "name": "",
          "type": "uint256"
        }
      ],
      "payable": false,
      "stateMutability": "nonpayable",
      "type": "function"
    },
    {
      "constant": false,
      "inputs": [],
      "name": "_generate_rfq_id",
      "outputs": [
        {
          "name": "",
          "type": "uint256"
        }
      ],
      "payable": false,
      "stateMutability": "nonpayable",
      "type": "function"
    },
    {
      "constant": false,
      "inputs": [
        {
          "name": "rfqId",
          "type": "uint256"
        },
        {
          "name": "price",
          "type": "uint256"
        }
      ],
      "name": "updateResponse",
      "outputs": [
        {
          "name": "",
          "type": "uint256"
        }
      ],
      "payable": false,
      "stateMutability": "nonpayable",
      "type": "function"
    },
    {
      "constant": false,
      "inputs": [],
      "name": "_generate_response_id",
      "outputs": [
        {
          "name": "",
          "type": "uint256"
        }
      ],
      "payable": false,
      "stateMutability": "nonpayable",
      "type": "function"
    }
  ],
  "bytecode": "0x608060405260008055600060035534801561001957600080fd5b50610518806100296000396000f3fe6080604052600436106100775763ffffffff7c01000000000000000000000000000000000000000000000000000000006000350416630497c678811461007c5780631c355f9f146100a357806350fb28da146100b8578063511fb184146101005780637d2dd1a514610130578063b5b0de02146101e7575b600080fd5b34801561008857600080fd5b5061009161029c565b60408051918252519081900360200190f35b3480156100af57600080fd5b506100916102ab565b3480156100c457600080fd5b506100e2600480360360208110156100db57600080fd5b50356102b9565b60408051938452602084019290925282820152519081900360600190f35b34801561010c57600080fd5b506100916004803603604081101561012357600080fd5b50803590602001356102da565b34801561013c57600080fd5b5061015a6004803603602081101561015357600080fd5b5035610329565b6040518080602001858152602001848152602001838152602001828103825286818151815260200191508051906020019080838360005b838110156101a9578181015183820152602001610191565b50505050905090810190601f1680156101d65780820380516001836020036101000a031916815260200191505b509550505050505060405180910390f35b3480156101f357600080fd5b506100916004803603604081101561020a57600080fd5b81019060208101813564010000000081111561022557600080fd5b82018360208201111561023757600080fd5b8035906020019184600183028401116401000000008311171561025957600080fd5b91908080601f01602080910402602001604051908101604052809392919081815260200183838082843760009201919091525092955050913592506103d6915050565b60008054600101908190555b90565b600380546001019081905590565b60046020526000908152604090208054600182015460029092015490919083565b6000806102e56102ab565b604080516060810182528281526020808201878152828401898152600086815260049093529390912091518255516001820155905160029091015591505092915050565b600260208181526000928352604092839020805484516001821615610100026000190190911693909304601f81018390048302840183019094528383529283918301828280156103ba5780601f1061038f576101008083540402835291602001916103ba565b820191906000526020600020905b81548152906001019060200180831161039d57829003601f168201915b5050505050908060010154908060020154908060030154905084565b6000806103e161029c565b6040805160808101825286815260208082018790528183018490524260608301819052600085815260028352939093208251805195965093949293909261042b9284920190610454565b506020820151600182015560408201516002820155606090910151600390910155509392505050565b828054600181600116156101000203166002900490600052602060002090601f016020900481019282601f1061049557805160ff19168380011785556104c2565b828001600101855582156104c2579182015b828111156104c25782518255916020019190600101906104a7565b506104ce9291506104d2565b5090565b6102a891905b808211156104ce57600081556001016104d856fea165627a7a72305820c7364853a872100f97fb803beb10fec65f9ce0ff84ec72b371843c0b009579ca0029",
  "source": "pragma solidity >=0.4.21 <0.6.0;\r\n\r\ncontract FinIQ_Core{\r\n    struct RFQ {\r\n        string shareName;\r\n        uint quantity;\r\n        uint rfq_id;\r\n        uint timeStamp;        \r\n    }\r\n\r\n    uint rfq_id = 0;\r\n    address sellSide;\r\n    mapping(uint=>RFQ) public rfq;\r\n\r\n    struct Response {\r\n        uint response_id;\r\n        uint price;\r\n        uint rfq_id;\r\n    }\r\n    \r\n    uint response_id = 0;\r\n\r\n    /* This creates an array with all prices */\r\n    mapping (uint => Response) public response;\r\n    \r\n\r\n    event Request(address sellSide, string shareName, uint quantity, uint rfq_id);\r\n\r\n    \r\n    function updateCreateRFQ(string memory shareName, uint quantity) public returns(uint ) {\r\n        uint id;\r\n        id = _generate_rfq_id();\r\n        uint timeStamp;\r\n        timeStamp = block.timestamp;\r\n        //RFQ storage rfqnew = rfq[id];\r\n        rfq[id] = RFQ(shareName,quantity,id,timeStamp);\r\n\r\n        return id ;\r\n\r\n    }\r\n\r\n    function _generate_rfq_id() public  returns(uint){\r\n        return rfq_id += 1;\r\n    }\r\n    \r\n    \r\n    \r\n    \r\n    function updateResponse  (uint rfqId,uint price) public returns (uint) {\r\n        uint resp_id;\r\n        resp_id = _generate_response_id();\r\n        \r\n        response[resp_id] = Response(resp_id,price,rfqId);\r\n\r\n        \r\n        return resp_id;\r\n\r\n    }\r\n    function _generate_response_id() public returns (uint){\r\n        return response_id += 1;\r\n    }\r\n\r\n}",
  "sourcePath": "C:\\Users\\ADMIN\\project\\contracts\\FinIQ_Core.sol",
  "compiler": {
    "name": "solc",
    "version": "0.5.0+commit.1d4f565a.Emscripten.clang"
  },
  "schemaVersion": "3.0.2",
  "updatedAt": "2019-04-08T14:39:23.178Z",
  "devdoc": {
    "methods": {}
  },
  "userdoc": {
    "methods": {}
  }
}