{
  "contractName": "FinIQ_Core",
  "abi": [
    {
      "constant": true,
      "inputs": [
        {
          "name": "",
          "type": "uint256"
        }
      ],
      "name": "response",
      "outputs": [
        {
          "name": "response_id",
          "type": "uint256"
        },
        {
          "name": "price",
          "type": "uint256"
        }
      ],
      "payable": false,
      "stateMutability": "view",
      "type": "function"
    },
    {
      "constant": true,
      "inputs": [
        {
          "name": "",
          "type": "uint256"
        }
      ],
      "name": "rfq",
      "outputs": [
        {
          "name": "shareName",
          "type": "string"
        },
        {
          "name": "quantity",
          "type": "uint256"
        },
        {
          "name": "rfq_id",
          "type": "uint256"
        },
        {
          "name": "timeStamp",
          "type": "uint256"
        }
      ],
      "payable": false,
      "stateMutability": "view",
      "type": "function"
    },
    {
      "anonymous": false,
      "inputs": [
        {
          "indexed": false,
          "name": "sellSide",
          "type": "address"
        },
        {
          "indexed": false,
          "name": "shareName",
          "type": "string"
        },
        {
          "indexed": false,
          "name": "quantity",
          "type": "uint256"
        },
        {
          "indexed": false,
          "name": "rfq_id",
          "type": "uint256"
        }
      ],
      "name": "Request",
      "type": "event"
    },
    {
      "constant": false,
      "inputs": [
        {
          "name": "shareName",
          "type": "string"
        },
        {
          "name": "quantity",
          "type": "uint256"
        }
      ],
      "name": "updateCreateRFQ",
      "outputs": [
        {
          "name": "",
          "type": "uint256"
        }
      ],
      "payable": false,
      "stateMutability": "nonpayable",
      "type": "function"
    },
    {
      "constant": false,
      "inputs": [],
      "name": "_generate_rfq_id",
      "outputs": [
        {
          "name": "",
          "type": "uint256"
        }
      ],
      "payable": false,
      "stateMutability": "nonpayable",
      "type": "function"
    },
    {
      "constant": false,
      "inputs": [
        {
          "name": "rfqId",
          "type": "uint256"
        },
        {
          "name": "price",
          "type": "uint256"
        }
      ],
      "name": "updateResponse",
      "outputs": [
        {
          "name": "",
          "type": "uint256"
        }
      ],
      "payable": false,
      "stateMutability": "nonpayable",
      "type": "function"
    },
    {
      "constant": false,
      "inputs": [],
      "name": "_generate_response_id",
      "outputs": [
        {
          "name": "",
          "type": "uint256"
        }
      ],
      "payable": false,
      "stateMutability": "nonpayable",
      "type": "function"
    }
  ],
  "bytecode": "0x6060604052600080556000600355341561001857600080fd5b610548806100276000396000f300606060405260043610610078576000357c0100000000000000000000000000000000000000000000000000000000900463ffffffff1680630497c6781461007d5780631c355f9f146100a657806350fb28da146100cf578063511fb1841461010d5780637d2dd1a51461014d578063b5b0de02146101fe575b600080fd5b341561008857600080fd5b610090610278565b6040518082815260200191505060405180910390f35b34156100b157600080fd5b6100b961028e565b6040518082815260200191505060405180910390f35b34156100da57600080fd5b6100f060048080359060200190919050506102a5565b604051808381526020018281526020019250505060405180910390f35b341561011857600080fd5b61013760048080359060200190919080359060200190919050506102c9565b6040518082815260200191505060405180910390f35b341561015857600080fd5b61016e600480803590602001909190505061031f565b6040518080602001858152602001848152602001838152602001828103825286818151815260200191508051906020019080838360005b838110156101c05780820151818401526020810190506101a5565b50505050905090810190601f1680156101ed5780820380516001836020036101000a031916815260200191505b509550505050505060405180910390f35b341561020957600080fd5b610262600480803590602001908201803590602001908080601f016020809104026020016040519081016040528093929190818152602001838380828437820191505050505050919080359060200190919050506103e7565b6040518082815260200191505060405180910390f35b6000600160008082825401925050819055905090565b600060016003600082825401925050819055905090565b60046020528060005260406000206000915090508060000154908060010154905082565b6000806102d461028e565b90506040805190810160405280828152602001848152506004600083815260200190815260200160002060008201518160000155602082015181600101559050508091505092915050565b6002602052806000526040600020600091509050806000018054600181600116156101000203166002900480601f0160208091040260200160405190810160405280929190818152602001828054600181600116156101000203166002900480156103cb5780601f106103a0576101008083540402835291602001916103cb565b820191906000526020600020905b8154815290600101906020018083116103ae57829003601f168201915b5050505050908060010154908060020154908060030154905084565b60008060006103f4610278565b91504290506080604051908101604052808681526020018581526020018381526020018281525060026000848152602001908152602001600020600082015181600001908051906020019061044a929190610477565b50602082015181600101556040820151816002015560608201518160030155905050819250505092915050565b828054600181600116156101000203166002900490600052602060002090601f016020900481019282601f106104b857805160ff19168380011785556104e6565b828001600101855582156104e6579182015b828111156104e55782518255916020019190600101906104ca565b5b5090506104f391906104f7565b5090565b61051991905b808211156105155760008160009055506001016104fd565b5090565b905600a165627a7a72305820c8598c1df18ecaec00fda1faccd4fbf3412cbd3966e9831558b1f3e4b0e14a9a0029",
  "source": "pragma solidity >=0.4.21 <0.6.0;\r\n\r\ncontract FinIQ_Core {\r\n    struct RFQ {\r\n        string shareName;\r\n        uint quantity;\r\n        uint rfq_id;\r\n        uint timeStamp;\r\n        //address[] sellSide;        \r\n    }\r\n\r\n    uint rfq_id = 0;\r\n    address sellSide;\r\n    mapping(uint=>RFQ) public rfq;\r\n\r\n    struct Response {\r\n        uint response_id;\r\n        uint price;\r\n    }\r\n    \r\n    uint response_id = 0;\r\n\r\n    /* This creates an array with all prices */\r\n    mapping (uint => Response) public response;\r\n    \r\n\r\n    event Request(address sellSide, string shareName, uint quantity, uint rfq_id);\r\n\r\n    \r\n    function updateCreateRFQ(string memory shareName, uint quantity) public returns(uint ) {\r\n        uint id;\r\n        id = _generate_rfq_id();\r\n        uint timeStamp;\r\n        timeStamp = block.timestamp;\r\n        //RFQ storage rfqnew = rfq[id];\r\n        rfq[id] = RFQ(shareName,quantity,id,timeStamp);\r\n\r\n        return id ;\r\n\r\n    }\r\n\r\n    function _generate_rfq_id() public  returns(uint){\r\n        return rfq_id += 1;\r\n    }\r\n    \r\n    \r\n    \r\n    function updateResponse  (uint rfqId,uint price) public returns (uint) {\r\n        uint resp_id;\r\n        resp_id = _generate_response_id();\r\n        \r\n        response[resp_id] = Response(resp_id,price);\r\n        \r\n        return resp_id;\r\n\r\n    }\r\n    function _generate_response_id() public returns (uint){\r\n        return response_id += 1;\r\n    }\r\n\r\n}",
  "sourcePath": "C:\\Users\\SAM\\project\\contracts\\finiq_core1.sol",
  "compiler": {
    "name": "solc",
    "version": "0.4.21+commit.dfe3193c.Emscripten.clang"
  },
  "schemaVersion": "2.0.0",
  "updatedAt": "2019-01-31T17:23:23.531Z"
}