{
  "contractName": "FinIQ_Manager",
  "abi": [
    {
      "constant": false,
      "inputs": [],
      "name": "createBuyer",
      "outputs": [
        {
          "name": "",
          "type": "address"
        }
      ],
      "payable": false,
      "stateMutability": "nonpayable",
      "type": "function",
      "signature": "0x4c0b2db1"
    },
    {
      "constant": false,
      "inputs": [],
      "name": "createSeller",
      "outputs": [
        {
          "name": "",
          "type": "address"
        }
      ],
      "payable": false,
      "stateMutability": "nonpayable",
      "type": "function",
      "signature": "0xe85fa4a9"
    }
  ],
  "bytecode": "0x60806040526000600255600060035534801561001a57600080fd5b506106528061002a6000396000f3fe60806040526004361061004b5763ffffffff7c01000000000000000000000000000000000000000000000000000000006000350416634c0b2db18114610050578063e85fa4a91461008e575b600080fd5b34801561005c57600080fd5b506100656100a3565b6040805173ffffffffffffffffffffffffffffffffffffffff9092168252519081900360200190f35b34801561009a57600080fd5b50610065610172565b6000806100ae610216565b604051809103906000f0801580156100ca573d6000803e3d6000fd5b5060008054600180820183558280527f290decd9548b62a8d60345a988386fc84ba6bc95484008f6362f93160ef3e563909101805473ffffffffffffffffffffffffffffffffffffffff191673ffffffffffffffffffffffffffffffffffffffff8516179055600280549091019081905581549293509091811061014a57fe5b60009182526020909120015473ffffffffffffffffffffffffffffffffffffffff1691505090565b60008061017d610226565b604051809103906000f080158015610199573d6000803e3d6000fd5b5060018054808201825560008290527fb10e2d527612073b26eecdfd717e6a320cf44b4afac2b0732d9fcbe2b7fa0cf601805473ffffffffffffffffffffffffffffffffffffffff191673ffffffffffffffffffffffffffffffffffffffff84161790556003805482019081905581549293509091811061014a57fe5b60405161026a8061023783390190565b604051610186806104a18339019056fe608060405234801561001057600080fd5b5061024a806100206000396000f3fe6080604052600436106100405763ffffffff7c01000000000000000000000000000000000000000000000000000000006000350416636ecb11418114610045575b600080fd5b34801561005157600080fd5b506100fa6004803603604081101561006857600080fd5b81019060208101813564010000000081111561008357600080fd5b82018360208201111561009557600080fd5b803590602001918460018302840111640100000000831117156100b757600080fd5b91908080601f016020809104026020016040519081016040528093929190818152602001838380828437600092019190915250929550509135925061010c915050565b60408051918252519081900360200190f35b60008054604080517fb5b0de02000000000000000000000000000000000000000000000000000000008152602481018590526004810191825285516044820152855173ffffffffffffffffffffffffffffffffffffffff9093169263b5b0de02928792879282916064019060208601908083838c5b83811015610199578181015183820152602001610181565b50505050905090810190601f1680156101c65780820380516001836020036101000a031916815260200191505b509350505050602060405180830381600087803b1580156101e657600080fd5b505af11580156101fa573d6000803e3d6000fd5b505050506040513d602081101561021057600080fd5b50516001819055939250505056fea165627a7a7230582078f074f5021ffcf144d5172b1393a5dd172222f0a3483c4bdd66444da949baea0029608060405234801561001057600080fd5b50610166806100206000396000f3fe6080604052600436106100405763ffffffff7c01000000000000000000000000000000000000000000000000000000006000350416635e72105c8114610045575b600080fd5b34801561005157600080fd5b506100756004803603604081101561006857600080fd5b5080359060200135610087565b60408051918252519081900360200190f35b60008054604080517f511fb1840000000000000000000000000000000000000000000000000000000081526004810186905260248101859052905173ffffffffffffffffffffffffffffffffffffffff9092169163511fb1849160448082019260209290919082900301818787803b15801561010257600080fd5b505af1158015610116573d6000803e3d6000fd5b505050506040513d602081101561012c57600080fd5b50516001819055939250505056fea165627a7a723058200f76f948b0d999e31901ae605d110531cfb2ff25ff7ff288011f840ceef1c1760029a165627a7a72305820c094694ac0d9705c72cec92376a5535383dd740b84d72879d4cee8ea1ff0d7030029",
  "source": "pragma solidity >=0.4.21 <0.6.0;\r\nimport \"./BuyerSide.sol\" as BuyerSide;\r\nimport \"./SellerSide.sol\" as SellerSide;\r\n\r\ncontract FinIQ_Manager {\r\n    address[] buyerCopies;\r\n    address[] sellerCopies;\r\n    uint buyer_count = 0;\r\n    uint seller_count = 0;\r\n    \r\n    function createBuyer () public returns (address){\r\n        address buyerCopy = address(new BuyerSide.BuyerSide());\r\n        buyerCopies.push(buyerCopy);\r\n        buyer_count += 1;\r\n        return buyerCopies[buyer_count];\r\n    }\r\n\r\n    function createSeller () public returns (address){\r\n        address sellerCopy = address(new SellerSide.SellerSide());\r\n        sellerCopies.push(sellerCopy);\r\n        seller_count += 1;\r\n        return sellerCopies[seller_count];\r\n    } \r\n    \r\n    /*\r\n    function getAddress () public returns (address){\r\n        BuyerSide newBuyer = BuyerSide(buyerCopies[count]);\r\n        address newAddress = newBuyer.BuyerAddress();\r\n        count += 1;\r\n        return newAddress;\r\n    }\r\n    */\r\n}",
  "sourcePath": "C:/Users/ADMIN/project/contracts/FinIQ_Manager.sol",
  "compiler": {
    "name": "solc",
    "version": "0.5.0+commit.1d4f565a.Emscripten.clang"
  },
  "schemaVersion": "3.0.2",
  "updatedAt": "2019-03-02T08:15:06.514Z",
  "devdoc": {
    "methods": {}
  },
  "userdoc": {
    "methods": {}
  }
}