{
  "contractName": "SellerSide",
  "abi": [
    {
      "constant": false,
      "inputs": [
        {
          "name": "rfqId",
          "type": "uint256"
        },
        {
          "name": "price",
          "type": "uint256"
        }
      ],
      "name": "Response",
      "outputs": [
        {
          "name": "",
          "type": "uint256"
        }
      ],
      "payable": false,
      "stateMutability": "nonpayable",
      "type": "function"
    }
  ],
  "bytecode": "0x608060405234801561001057600080fd5b50610166806100206000396000f3fe6080604052600436106100405763ffffffff7c01000000000000000000000000000000000000000000000000000000006000350416635e72105c8114610045575b600080fd5b34801561005157600080fd5b506100756004803603604081101561006857600080fd5b5080359060200135610087565b60408051918252519081900360200190f35b60008054604080517f511fb1840000000000000000000000000000000000000000000000000000000081526004810186905260248101859052905173ffffffffffffffffffffffffffffffffffffffff9092169163511fb1849160448082019260209290919082900301818787803b15801561010257600080fd5b505af1158015610116573d6000803e3d6000fd5b505050506040513d602081101561012c57600080fd5b50516001819055939250505056fea165627a7a723058200f76f948b0d999e31901ae605d110531cfb2ff25ff7ff288011f840ceef1c1760029",
  "source": "pragma solidity >=0.4.21 <0.6.0;\r\nimport \"./FinIQ_Core.sol\";\r\n\r\ncontract SellerSide {\r\n    FinIQ_Core fc;\r\n    uint response_id;\r\n\r\n    function Response (uint rfqId, uint price) public returns(uint ) {\r\n        response_id = fc.updateResponse(rfqId, price);\r\n        return response_id;\r\n    }\r\n\r\n}\t\r\n",
  "sourcePath": "C:\\Users\\ADMIN\\project\\contracts\\SellerSide.sol",
  "compiler": {
    "name": "solc",
    "version": "0.5.0+commit.1d4f565a.Emscripten.clang"
  },
  "schemaVersion": "3.0.2",
  "updatedAt": "2019-04-08T14:39:23.174Z",
  "devdoc": {
    "methods": {}
  },
  "userdoc": {
    "methods": {}
  }
}